:0300000002211EBC
:0C211E00787FE4F6D8FD7581450221654C
:0A3FF600FFFFFFFFFFFCF65AA55E77
:101B0300758E7075E50775E66975865A1225941208
:101B13002E56122D6D122D86122CA2D2FCD20CC27F
:101B230010900011E4F0D204D20012294EC2EEC28A
:101B3300F875865A200C4A900003E0FFB4020512A0
:101B430028CE8017900003E0FFB40105121D5880D2
:101B53000A900003E0FF70031226E690000FE0FFF7
:101B6300B4020512290E801C90000FE0FFB401059A
:101B7300122699800F90000FE0FF7008122CC4808A
:101B830003120DAC90000EE0FF120D861B9F011B8C
:101B9300B5021BA6031BAB0400001BB0122D39803A
:101BA30011800F12272E800A12001E800590000E4E
:101BB300E4F090000EE004F090003DE0FF70067446
:101BC30003F012008E900006E0FEA3E0FF1219F965
:0C1BD300900006EEF0A3EFF0021B34229D
:101D580020FD03021DE4D214122E7790000BE4F04C
:101D6800A3F090003EF0D2FC122B8C90001CEEF0F9
:101D7800A3EFF090001CE0FEA3E0FFC39464EE9490
:101D880000503190001CE0A3E0C39446EE9400504C
:101D98000F7F007E00122B049000177406F0D20FFC
:101DA800D2052008519000397406F0D2129000171D
:101DB800F0D20F227FFF7E00122B04C205200836C6
:101DC8003001089000397402F080069000397401DF
:101DD800F0D2129000177409F0D20F2220FD1730AC
:101DE800140790003EE4F0D20CC214900017740758
:071DF800F0D20F1228CE22E9
:1026990012000E900012E4F0A3F0900046F0122B05
:1026A900B690002DEEF0A3EFF090002DE0FEA3E030
:1026B900FFC394C8EE9400500BD2199000427406DF
:1026C900F0D21622C2192008133001089000427472
:0D26D90002F080069000427401F0D216223B
:1026E600122E7790000BE4F0A3F090003EF0D2FC9F
:1026F600122B8C90001CEEF0A3EFF090001CE0FE75
:10270600A3E0FFC39464EE940050077F007E00129E
:102716002B04D2189000397408F0900017F0D20FED
:08272600D212900029E4F02218
:102CC40012000E900012E4F0A3F0900046F0D21827
:0E2CD4009000427408F0D216900035E4F02211
:1028CE00200D31900010E0FF70357403F090003B46
:1028DE00E0FEA3E0FF90001CE0FCA3E0FD121DFF54
:1028EE0090001CEEF0A3EFF090001CE0FEA3E0FFC2
:1028FE001221AA22122B8C900027EEF0A3EFF022C9
:10290E00201531900019E0FF70357403F0900043EC
:10291E00E0FEA3E0FF90002DE0FCA3E0FD121EA55B
:10292E0090002DEEF0A3EFF090002DE0FEA3E0FF5F
:10293E0012252D22122BB6900033EEF0A3EFF022CB
:1021AA00900103EEF0A3EFF0200E6B2008682009DF
:1021BA001C3001089000397402F0800690003974CE
:1021CA0001F09000177407F0D20FD2122290003B50
:1021DA00E0FEA3E0FF900103E0FCA3E0FD7B0A7AA6
:1021EA0000122221EFB4011330010890003974045F
:1021FA00F080199000397403F080113001089000C2
:10220A00397402F080069000397401F09000177456
:07221A0007F0D20FD21222DF
:10252D00900105EEF0A3EFF0200E5B200858200976
:10253D00143001089000427402F08006900042743D
:10254D0001F0D2162290003BE0FEA3E0FF900105C2
:10255D00E0FCA3E0FD7B0A7A00122221EFB4011307
:10256D003001089000427404F08019900042740309
:10257D00F080113001089000427402F08006900046
:07258D00427401F0D2162296
:0E1DFF009000D7EEF0A3EFF0A3ECF0A3EDF010
:101E0D009000D9E0FEA3E0FFA3EEF0A3EFF0122BBC
:101E1D008C9000DBEEF0A3EFF090003EE0FFB401FC
:101E2D0032900015E0FF3395E0FE9000DCE02FF0DE
:101E3D009000DBE03EF09000D7E0FEA3E0FF9000C5
:101E4D00DBE0FCA3E0FD12122B90000BEEF0A3EFF4
:101E5D00F0803C9000D7E0FEA3E0FF9000DBE0FCBB
:101E6D00A3E0FD7B147A0012222190003EEFF0E0FA
:101E7D00FFB4020C90000B7413F0A37488F0800F64
:101E8D0090003EE0FFB4030790000BE4F0A3F09048
:071E9D0000DBE0FEA3E0FF03
:011EA400221B
:0E1EA5009000DDEEF0A3EFF0A3ECF0A3EDF063
:101EB3009000DFE0FEA3E0FFA3EEF0A3EFF0122B10
:101EC300B69000E1EEF0A3EFF0900046E0FFB4011E
:101ED30032900021E0FF3395E0FE9000E2E02FF026
:101EE3009000E1E03EF09000DDE0FEA3E0FF900013
:101EF300E1E0FCA3E0FD121593900012EEF0A3EFD6
:101F0300F0803C9000DDE0FEA3E0FF9000E1E0FC08
:101F1300A3E0FD7B147A00122221900046EFF0E04B
:101F2300FFB4020C9000127413F0A37488F0800FB6
:101F3300900046E0FFB40307900012E4F0A3F09092
:071F430000E1E0FEA3E0FF56
:011F4A002274
:102221009000CFEEF0A3EFF0A3ECF0A3EDF0A3EA62
:04223100F0A3EBF03B
:102235009000D1E0FEA3E0FF9000CFE0FCA3E0FD1D
:10224500C39FFFEC9EFE9000D5F0A3EFF09000D366
:10225500E0FEA3E0FFA3E0FCA3E0FDD39FEE6480D6
:10226500F8EC64809840037F02229000D3E0FEA33F
:10227500E0FFC3E49FFFE49EFEA3E0FCA3E0FDC3F3
:102285009FEE6480F8EC64809850037F03227F0101
:012295002226
:102B8C00900107E4F0A3F0122E777F147E00122B35
:102B9C005F7F01121736900107EEF0A3EFF0122EB3
:092BAC0043900107E0FEA3E0FFE5
:012BB50022FD
:102BB600900109E4F0A3F012000E7F147E00122BA0
:102BC6005F7F02121736900109EEF0A3EFF0122E86
:092BD60030900109E0FEA3E0FFCC
:012BDF0022D3
:0819F9009000E9EEF0A3EFF00D
:101A0100A3E4F09000E9E0FEA3E0FF9000ECEEF02B
:101A1100A3EFF0122C7F9000EBEFF0E0FF64597020
:101A210057D21190003AE0FF60109000EDE0240AD7
:101A3100F09000ECE03400F0800E9000EDE004F056
:101A410070069000ECE004F09000ECE0FEA3E0FFF3
:101A5100D39463EE940040099000ECE4F0A3746326
:101A6100F0D2029000177407F0D20F900002742098
:101A7100F090003AF0021AFA9000EBE0FF645A701D
:101A810056D21190003AE0FF60109000EDE024F68C
:101A9100F09000ECE034FFF0800E9000EDE024FFC8
:101AA100F09000ECE034FFF09000ECE0FEA3E0FFEA
:101AB100C3940AEE940050099000ECE4F0A3740A78
:101AC100F0D2029000177407F0D20F900002742038
:101AD100F090003AF0802230111F900002E0FF7078
:101AE10018C2113005089000177406F080069000A6
:101AF100177407F0D20F12230B9000ECE0FEA3E065
:011B0100FFE4
:011B020022C0
:10272E00300E09900008E0FF122DB62230121490E0
:10273E000029E0FF700DC212740AF0900039E0FF1C
:10274E0012245B301614900035E0FF700DC2167423
:10275E000AF0900042E0FF1224C4300F0AC20F901C
:08276E000017E0FF122983228D
:102D3900900003E0FF122091900003EFF090000F44
:0B2D4900E0FF121BDF90000FEFF022F4
:0520910090010BEFF0CF
:10209600E0FFA3F030EF21900016E004F090002B53
:1020A600E4F0900025F0900016E0FFD39403406220
:1020B600E4F090010CF0805A20FB22900025E00409
:1020C600F090002BE4F0900016F0900025E0FFD38E
:1020D6009403403EE4F090010C04F0803530FB326E
:1020E60090002BE004F0900016E4F0900025F090AC
:1020F600002BE0FFD39401401990010CE0FF600330
:10210600B40104D20CD20090002BE4F090010C74C0
:0721160002F090010CE0FF54
:01211D00229F
:051BDF0090010DEFF084
:101BE400E0FFA3F030F927900023E004F0900038E0
:101BF400E4F0900032F0900023E0FFD3940350030C
:101C0400021C98E4F090010EF0C20B021C989001A3
:101C14000EE0FF7004D20CD204900036E0FF70177F
:101C240090010E7402F0900023E4F0900032F090E2
:101C34000038F0C20B805D90004BE0FF60289001FB
:101C44000E7402F030B34D900032E004F0900023A3
:101C5400E4F0900032E0FFD3940A4038D20BE4F071
:101C6400900038F0802E90010E7401F020B325907E
:101C74000038E004F0900023E4F0900032F090008B
:101C840036E0FF90004BF090010E7402F0900038A3
:091C9400E4F0C20B90010EE0FF28
:011C9D002224
:102D9F00900027E0FEA3E0FF121F4B900033E0FEF0
:072DAF00A3E0FF121FF02258
:101F4B0090010FEEF0A3EFF0900026E0FF6003028C
:101F5B001FEF20104590010FE0FEA3E0FFC3944656
:101F6B00EE9400503590001BE0FF7026D20D122E20
:101F7B007790000BE4F0A3F0D2FC90001F04F0204C
:101F8B0008089000397405F0D21290001B7414F0FD
:101F9B00804C90001BE014F0804490010FE0FEA3F6
:101FAB00E0FFD39444EE9402403490001EE0FF70A7
:101FBB0027D20DD2FC122E7790000BE4F0A3F090F9
:101FCB00001F7402F02008089000397405F0D2123B
:101FDB0090001E7403F0800690001EE014F0900039
:051FEB00267402F02243
:101FF000900111EEF0A3EFF0900026E0FF600302E5
:102000002090201043900111E0FEA3E0FFC394460E
:10201000EE9400503390002CE0FF7024D215120093
:102020000E900012E4F0A3F090003004F0200808B5
:102030009000427405F0D21690002C7414F0804A7F
:1020400090002CE014F08042900111E0FEA3E0FF2C
:10205000D39444EE9402403290002FE0FF7025D2DA
:102060001512000E900012E4F0A3F09000307402FC
:10207000F02008089000427405F0D21690002F74EA
:1020800003F0800690002FE014F09000267402F018
:01209000222D
:10001E00900113E4F0A3F0300253C202900006E008
:10002E00FCA3E0FDE4120C417BCD7ACC790C784038
:10003E00120B367B007A0079F07841120A45120CC9
:10004E007A900113EEF0A3EFF0900113E0FEA3E01F
:10005E00FFD394FFEE94004009900113E4F0A374D3
:0D006E00FFF0900113E0FEA3E0FF122B0451
:01007B002262
:100DAC00200C0302104C30100302104C1200037F75
:100DBC00427E00122B04122AA8122A7A7826E6FF09
:100DCC0024FF9201C201A201921B7828E6FF24FFA6
:100DDC00920908E6FF24FF92067F0E1225EC900084
:100DEC0006EEF0A3EFF0900006E0FEA3E0FFD39434
:100DFC0063EE9400400B900006E4F0A37432F08094
:100E0C0017900006E0FEA3E0FFC3EE94005009909B
:100E1C000006E4F0A37432F07F041225EC90001568
:100E2C00EFF07F061225EC900021EFF0900015E01A
:100E3C00FFD3648094E34004E4F0800E900015E04E
:100E4C00FFC3648094805002E4F0900021E0FFD353
:100E5C00648094E34004E4F0800E900021E0FFC332
:100E6C00648094805002E4F07F081225EC90003BE3
:100E7C00EEF0A3EFF07F0A1225EC900043EEF0A306
:100E8C00EFF090003BE0FEA3E0FFD394F4EE94016E
:100E9C00400C90003B7401F0A3742CF0801890006F
:100EAC003BE0FEA3E0FFC3EE9400500A90003B74BD
:100EBC0001F0A3742CF0900043E0FEA3E0FFD39468
:100ECC00F4EE9401400C9000437401F0A3742CF0E8
:100EDC008018900043E0FEA3E0FFC3EE9400500A9C
:100EEC009000437401F0A3742CF03001489000433F
:100EFC00E0FEA3E0FF7C007D09120CFB7D05120DCA
:100F0C000DEF2420FFEE3400FE900047F0A3EFF02D
:100F1C0090003BE0FEA3E0FF7C007D09120CFB7D02
:100F2C0005120D0DEF2420FFEE3400FE90003FF073
:100F3C00A3EFF08020900043E0FEA3E0FF90004779
:100F4C00EEF0A3EFF090003BE0FEA3E0FF90003F3B
:100F5C00EEF0A3EFF0900047E0FEA3E0FF9000045A
:100F6C00EEF0A3EFF090003FE0FEA3E0FF9000490D
:100F7C00EEF0A3EFF07F0C1225EC900036EFF0E0D2
:100F8C00FFC3648094804008E0D3648094E34006FF
:100F9C009000367401F0900036E0FF90004BF0901A
:100FAC00003EE4F0900046F090001FF0900030F00E
:100FBC0090001FF0900030F090001B7414F0900023
:100FCC001E7404F090002C7414F090002F7404F034
:100FDC0090000DE4F090001804F0900008F09000E0
:100FEC0041F0C20B122D39D202300017C200D212BE
:100FFC00900029E4F0D20F9000177407F09000399C
:10100C007403F030040FC204D216900035E4F09053
:10101C0000427403F0900003E0FF700A90003974F2
:10102C0008F0900017F090000FE0FF70069000425F
:10103C007408F0C20ED2FC900011740AF0D2102287
:10104C00301010900011E0FF700912007CC20CC22D
:04105C0010C2FC22A0
:10008E001218BC900121EFF09000E3E0FF640170C4
:10009E0053900121E0FF120D860A3D0100B8020ABD
:1000AE003D0300C30400000A3D22D2089000E3E4A1
:1000BE00F0C21C2222301C03020A3DD21CD20820A0
:1000CE000E18D20E9000187401F0900008E4F09013
:1000DE000041F090000D7464F022C20E90000DE409
:1000EE00F02222229000E3E0FF6402600302024F3E
:1000FE00900121E0FF120D860A3D010117020A3D13
:10010E0003020C0400000A3D22D208200E3E90008D
:10011E0040E004F0700690003FE004F090003FE0F5
:10012E00FEA3E0FFD394F4EE9401400A90003F74D6
:10013E0001F0A374F4F09000397403F0D212900021
:10014E0029E4F090000D7430F0020205900008E0F2
:10015E0004F0E0FFD3648094864002E4F09000083F
:10016E00E0FF64017041200103301B2590003BE04D
:10017E00FEA3E0FF7C007D09120CFB7D05120D0D28
:10018E00EF2420FFEE3400FE900049F0A3EFF08044
:10019E0016300103201B1090003BE0FEA3E0FF9001
:1001AE000049EEF0A3EFF0900008E0FF640270410A
:1001BE00200103301B25900043E0FEA3E0FF7C00EE
:1001CE007D09120CFB7D05120D0DEF2420FFEE3480
:1001DE0000FE900004F0A3EFF08016300103201B08
:1001EE0010900043E0FEA3E0FF900004EEF0A3EFBA
:1001FE00F090000D7450F09000E3E4F02222D2084B
:10020E00300E03020A3D900040E0240AF090003FB9
:10021E00E03400F0E0FEA3E0FFD394F4EE9401404E
:10022E000A90003F7401F0A374F4F0900039740347
:10023E00F0D212900029E4F090000D7430F02222DA
:10024E00229000E3E0FF640360030203A890012103
:10025E00E0FF120D860A3D010274020A3D03036699
:10026E000400000A3D22D208200E3A900040E024FD
:10027E00FFF090003FE034FFF0E0FEA3E0FFC394F8
:10028E0064EE9400500990003FE4F0A37464F09083
:10029E0000397403F0D212900029E4F090000D742E
:1002AE0030F002035F900008E014F0E0FFC36480BA
:1002BE00948050037406F0900008E0FF64017041D2
:1002CE00200103301B2590003BE0FEA3E0FF7C00E5
:1002DE007D09120CFB7D05120D0DEF2420FFEE346F
:1002EE0000FE900049F0A3EFF08016300103201BB2
:1002FE001090003BE0FEA3E0FF900049EEF0A3EF6C
:10030E00F0900008E0FF64027041200103301B25CD
:10031E00900043E0FEA3E0FF7C007D09120CFB7D04
:10032E0005120D0DEF2420FFEE3400FE900004F0B8
:10033E00A3EFF08016300103201B10900043E0FE67
:10034E00A3E0FF900004EEF0A3EFF090000D7450C8
:10035E00F09000E3E4F02222D208300E03020A3DB0
:10036E00900040E024F6F090003FE034FFF0E0FE15
:10037E00A3E0FFC39464EE9400500990003FE4F0B4
:10038E00A37464F09000397403F0D212900029E443
:10039E00F090000D7430F02222229000E3E0FF6412
:1003AE0004600302062F900121E0FF120D860A3D24
:1003BE000103CD020A3D0305130400000A3D22D2BB
:1003CE0008200E5D900048E004F07006900047E0B3
:1003DE0004F020011C900047E0FEA3E0FFD394C27E
:1003EE00EE940140269000477401F0A374C2F08091
:1003FE001A900047E0FEA3E0FFD3944AEE94034028
:10040E000A9000477403F0A3744AF09000427403FC
:10041E00F0D216900035E4F090000D7430F0020525
:10042E000C900008E0FF120D86050600045301042F
:10043E00A00204E90304ED0404F10504F50600002E
:10044E00050602050690004AE004F0700690004989
:10045E00E004F0300120900049E0FEA3E0FFD394C9
:10046E00E7EE940350030205069000497403F0A3CF
:10047E0074E7F0020506900049E0FEA3E0FFD39476
:10048E0058EE940240729000497402F0A37458F032
:10049E008066900005E004F07006900004E004F021
:1004AE0030011C900004E0FEA3E0FFD394E7EE942D
:1004BE000340459000047403F0A374E7F080399074
:1004CE000004E0FEA3E0FFD39458EE94024029907E
:1004DE0000047402F0A37458F0801DB21B8019B290
:1004EE00098015B2068011900036E004F0E0FFD3CB
:1004FE00648094E34002E4F090000D7450F090009C
:10050E00E3E4F02222D208200E58900048E02405A1
:10051E00F0900047E03400F0200119E0FEA3E0FF68
:10052E00D394C2EE940140269000477401F0A37458
:10053E00C2F0801A900047E0FEA3E0FFD3944AEE8B
:10054E009403400A9000477403F0A3744AF090009D
:10055E00427403F0D216900035E4F090000D743022
:10056E00F022900008E0FF120D8605850105CE02EF
:10057E000614060000062690004AE02405F09000BE
:10058E0049E03400F030011CE0FEA3E0FFD39458A4
:10059E00EE940450030206269000497404F0A374EE
:1005AE0058F08074900049E0FEA3E0FFD39458EE1B
:1005BE00940240649000497402F0A37458F080587D
:1005CE00900005E02405F0900004E03400F03001C6
:1005DE0019E0FEA3E0FFD394FEEE9403403A9000A0
:1005EE00047403F0A374FEF0802E900004E0FEA3CA
:1005FE00E0FFD39426EE9402401E9000047402F0A5
:10060E00A37426F08012900036E02405F0E0FFD3AC
:10061E00648094E34002E4F090000D7450F02222C6
:10062E00229000E3E0FF6405600302089D90012123
:10063E00E0FF120D860A3D010654020A3D03078AA9
:10064E000400000A3D22D208200E59900048E024F2
:10065E00FFF0900047E034FFF0200118E0FEA3E029
:10066E00FFC394C8EE94005025900047E4F0A374A5
:10067E00C8F0801A900047E0FEA3E0FFC39488EE16
:10068E009401500A9000477401F0A37488F0900012
:10069E00427403F0D216900035E4F090000D7430E1
:1006AE00F0020783900008E0FF120D86077D00061A
:1006BE00D601071C02076003076404076805076C70
:1006CE00060000077D02077D90004AE024FFF090AF
:1006DE000049E034FFF030011BE0FEA3E0FFC394BD
:1006EE0022EE9400400302077D900049E4F0A374CB
:1006FE0022F0807B900049E0FEA3E0FFC39401EE60
:10070E009400506B900049E4F0A304F080619000D7
:10071E0005E024FFF0900004E034FFF0300118E013
:10072E00FEA3E0FFD394D4EE94004043900004E483
:10073E00F0A374D4F08038900004E0FEA3E0FFD361
:10074E009464EE94004028900004E4F0A37464F0E6
:10075E00801DB21B8019B2098015B206801190005F
:10076E0036E014F0E0FFC3648094805002E4F09011
:10077E00000D7450F09000E3E4F02222D208200E17
:10078E0057900048E024FBF0900047E034FFF02043
:10079E000118E0FEA3E0FFC394C8EE94005025902C
:1007AE000047E4F0A374C8F0801A900047E0FEA35F
:1007BE00E0FFC39488EE9401500A9000477401F054
:1007CE00A37488F09000427403F0D216900035E4C2
:1007DE00F090000D7430F022900008E0FF120D86AC
:1007EE0007FB01083E020882060000089490004AAA
:1007FE00E024FBF0900049E034FFF0300118E0FEF9
:10080E00A3E0FFC39422EE9400507B900049E4F0E5
:10081E00A37422F08070900049E0FEA3E0FFC39421
:10082E0001EE94005060900049E4F0A304F080566D
:10083E00900005E024FBF0900004E034FFF030015E
:10084E0018E0FEA3E0FFC394D4EE9400503890005D
:10085E0004E4F0A374D4F0802D900004E0FEA3E035
:10086E00FFC39464EE9400501D900004E4F0A37452
:10087E0064F08012900036E024FBF0E0FFC3648049
:10088E0094805002E4F090000D7450F02222222049
:10089E000803020A3D90000DE0FF6003020A3D20AE
:1008AE000E030209AFC20EA21B9201200103020920
:1008BE005D900043E0FEA3E0FF7C007D09120CFB7F
:1008CE007D05120D0DEF2420FFEE3400FE90004743
:1008DE00F0A3EFF090003BE0FEA3E0FF7C007D096B
:1008EE00120CFB7D05120D0DEF2420FFEE3400FEE1
:1008FE0090003FF0A3EFF0900049E0FEA3E0FF244C
:10090E00E0FFEE34FFFE7C007D05120CFB7D09122C
:10091E000D0D90003BE0FCA3E0FDFEC39FFF900099
:10092E0015F0900004E0FEA3E0FF24E0FFEE34FF9C
:10093E00FE7C007D05120CFB7D09120D0D9000430F
:10094E00E0FCA3E0FDFEC39FFF900021F0806190CC
:10095E000043E0FEA3E0FF900047EEF0A3EFF0901F
:10096E00003BE0FEA3E0FF90003FEEF0A3EFF0901F
:10097E000049E0FEA3E0FF90003BE0FCA3E0FDFE9B
:10098E00C39FFF900015F0900004E0FEA3E0FF90DF
:10099E000043E0FCA3E0FDFEC39FFF900021F0802A
:1009AE000F90003EE4F0900046F0122A7A122AA828
:1009BE00300148900047E0FEA3E0FF24E0FFEE3454
:1009CE00FFFE7C007D05120CFB7D09120D0D9000C3
:1009DE0043EEF0A3EFF090003FE0FEA3E0FF24E033
:1009EE00FFEE34FFFE7C007D05120CFB7D09120D1F
:1009FE000D90003BEEF0A3EFF08020900047E0FE5C
:100A0E00A3E0FF900043EEF0A3EFF090003FE0FE76
:100A1E00A3E0FF90003BEEF0A3EFF0D2129000297E
:0F0A2E00E4F0D216900035F0D20F12230BC2085D
:010A3D002296
:10230B00A201E433FF7826F6A209E433FF7828F61E
:10231B00A206E433FF08F6900015E0FF3395E0FECC
:10232B007D041229EA900021E0FF3395E0FE7D0643
:10233B001229EA90003BE0FEA3E0FF7D081229EA98
:10234B00900043E0FEA3E0FF7D0A1229EA900036DD
:10235B00E0FF3395E0FE7D0C1229EA900006E0FECB
:10236B00A3E0FF7D0E1229EA7B007A007926122B5F
:02237B0032220C
:1029EA009000EEEEF0A3EFF0A3EDF09000EEE0FE23
:1029FA00A3E0FFEEFF7E00A3E0FE74262EF8A607F2
:102A0A009000EEE0FEA3E0FFA3E0FE74272EF8A6F6
:022A1A00072291
:0525EC009000F1EFF08A
:1025F100A3E4F0A3F09000F1E0FF74262FF8E6FFCA
:102601007E00A3EEF0A3EFF09000F2E0FEA3E0FF66
:102611007F00FE9000F2F0A3EFF09000F2E0FEA345
:10262100E0FF9000F1E0FD74272DF8E6FD7C00EE5F
:10263100EF4DFFA3EEF0A3EFF09000F2E0FEA3E078
:01264100FF99
:012642002275
:101060004200AB0000420095000042009B0000429D
:0E10700000970000420099000042009D000021
:102A7A009000A3E4F0A37496F09000A1E4F0A304FC
:102A8A00F090009FE4F0A37432F09000ABE4F0A35E
:0E2A9A00F0900095F0A3F090009BF0A3F022C6
:102AA8009000A9E4F0A374FAF09000A7E4F0A3045E
:102AB800F09000A5E4F0A37464F0900097E4F0A30C
:0E2AC800F0900099F0A3F090009DF0A3F02292
:0E122B009000ADEEF0A3EFF0A3ECF0A3EDF019
:10123900A3E4F0A3F0A3F0A3F0A3F0A3F0A3F0A319
:10124900F09000ABE0FEA3E0FF900095EEF0A3EF75
:10125900F09000AFE0FEA3E0FF9000ADE0FCA3E05A
:10126900FDC39FFFEC9EFE9000ABF0A3EFF0900052
:10127900ABE0FEA3E0FFD39414EE648094804012A7
:101289009000ABE4F0A3741EF090009BE4F0A3F08F
:1012990080399000ABE0FEA3E0FFC394ECEE6480DC
:1012A900947F50139000AB74FFF0A374E2F09000A8
:1012B9009BE4F0A3F080149000ABE0FEA3E0FF9064
:1012C900009CE02FF090009BE03EF090009BE0FE38
:1012D900A3E0FFD394A0EE6480948F400C90009B10
:1012E900740FF0A374A0F0801C90009BE0FEA3E0B3
:1012F900FFC3949CEE6480947F500A90009B74FF16
:10130900F0A3749CF09000ABE0FCA3E0FD9000A377
:10131900E0FEA3E0FF120CFB9000B1EEF0A3EFF0AA
:1013290090009BE0FCA3E0FD9000A1E0FEA3E0FF9C
:10133900120CFBEF7802CEA2E713CE13D8F8FF9078
:1013490000B3EEF0A3EFF0900095E0FEA3E0FF906C
:1013590000ABE0FCA3E0FDC39FFFEC9EFE90009F65
:10136900E0FCA3E0FD120CFB9000B5EEF0A3EFF05A
:101379009000B3E0FEA3E0FF9000B1E0FCA3E0FD24
:101389002FFFEC3EFE9000B5E0FCA3E0FDEF2DFF42
:10139900EE3CFEA3F0A3EFF09000B7E0FEA3E0FF60
:1013A900C3EE6480948050099000B7E4F0A3F08004
:1013B9001C9000B7E0FEA3E0FFD39488EE6480940C
:1013C90093400A9000B77413F0A37488F09000B7A3
:0513D900E0FEA3E0FFAF
:0113DE0022EC
:0E1593009000B9EEF0A3EFF0A3ECF0A3EDF0A2
:1015A100A3E4F0A3F0A3F0A3F0A3F0A3F0A3F0A3AE
:1015B100F0900097E0FEA3E0FF900099EEF0A3EF1A
:1015C100F09000BBE0FEA3E0FF9000B9E0FCA3E0D7
:1015D100FDC39FFFEC9EFE900097F0A3EFF09000FB
:1015E10097E0FEA3E0FFD39414EE64809480401250
:1015F100900097E4F0A3741EF090009DE4F0A3F036
:101601008039900097E0FEA3E0FFC394ECEE648084
:10161100947F501390009774FFF0A374E2F0900050
:101621009DE4F0A3F08014900097E0FEA3E0FF900A
:10163100009EE02FF090009DE03EF090009DE0FEC6
:10164100A3E0FFD39488EE64809493400C90009DB6
:101651007413F0A37488F0801790009DE0FEA3E05E
:10166100FFC3EE64809480500790009DE4F0A3F0E6
:10167100900097E0FCA3E0FD9000A9E0FEA3E0FF4D
:10168100120CFB9000BDEEF0A3EFF090009DE0FC8A
:10169100A3E0FD9000A7E0FEA3E0FF120CFB900089
:1016A100BFEEF0A3EFF0900099E0FEA3E0FF900001
:1016B10097E0FCA3E0FDC39FFFEC9EFE9000A5E038
:1016C100FCA3E0FD120CFB9000C1EEF0A3EFF09043
:1016D10000BFE0FEA3E0FF9000BDE0FCA3E0FD2F12
:1016E100FFEC3EFE9000C1E0FCA3E0FDEF2DFFEE1C
:1016F1003CFEA3F0A3EFF09000C3E0FEA3E0FFC324
:10170100EE6480948050099000C3E4F0A3F0801C43
:101711009000C3E0FEA3E0FFD39488EE648094932D
:10172100400A9000C37413F0A37488F09000C3E0E2
:04173100FEA3E0FF34
:011735002291
:102E090050DEB0941E1511DC1014611A15BF71FF44
:042E1900383958BB31
:102E1D00900115EEF0A3EFF0900115E0FEA3E0FF99
:032E2D00F580220B
:08237D009000F4EEF0A3EFF074
:102385009000F4E0FEA3E0FF7C007D64120D0DA338
:10239500EFF0E0FF902E0993FF900014F09000F409
:1023A500E0FEA3E0FF7C007D64120D0D7E007F0A38
:1023B500CFCDCFCECCCE120D0DA3EFF0E0FF902EFA
:1023C5000993FF900024F09000F4E0FEA3E0FF7C69
:1023D500007D0A120D0DAF05A3EFF0E0FF902E0969
:0623E50093FF90002AF0B6
:0123EB0022CF
:0823EC009000F7EEF0A3EFF002
:1023F4009000F7E0FEA3E0FF7C007D64120D0DA3C6
:10240400EFF0E0FF902E0993FF900020F09000F78A
:10241400E0FEA3E0FF7C007D64120D0D7E007F0AC8
:10242400CFCDCFCECCCE120D0DA3EFF0E0FF902E8A
:102434000993FF900031F09000F7E0FEA3E0FF7CE9
:10244400007D0A120D0DAF05A3EFF0E0FF902E09F9
:0624540093FF900037F039
:01245A00225F
:0529B700900117EFF094
:1029BC00E0FF75F00A84FFA3F0E0FF902E0993FF6F
:1029CC0090001AF0900117E0FF75F00A84AFF0A3A5
:0D29DC00EFF0E0FF902E0993FF900022F035
:0129E90022CB
:102DCD00902E16E493FF90001AF0902E16E4939037
:042DDD000022F022BE
:102BE000900122EFF0902E13E493FF900014F090E8
:102BF0002E1CE493FF900024F0900122E0FF902E21
:082C00000993FF90002AF02265
:102C0800900123EFF0902E13E493FF900020F090B2
:102C18002E1CE493FF900031F0900123E0FF902EEA
:082C28000993FF900037F02230
:102A1C00902E16E493FF900014F0902E16E49390F1
:102A2C000024F0902E16E49390002AF0902E16E4D9
:0F2A3C009390001AF0902E16E493900022F0224F
:102CE200902E16E493FF900020F0902E16E493901D
:0D2CF2000031F0902E16E493900037F02290
:102CFF00902E18E493FF900014F0902E18E4939008
:0D2D0F000024F0902E18E49390002AF0228A
:102D1C00902E18E493FF900020F0902E18E49390DE
:0D2D2C000031F0902E18E493900037F02253
:102DE100902E18E493FF90001AF0902E18E493901F
:042DF1000022F022AA
:10277600900124EFF0E0FFB4011F902E18E493FFC0
:10278600900020F0902E09E493FF900031F0902EF7
:102796001BE493FF900037F022902E09E493FF90FC
:1027A6000020F0902E1AE493FF900031F0902E1A3C
:0727B600E493900037F022CC
:10280400900125EFF0E0FF701E902E1693FF9000CC
:1028140020F0902E17E493FF900031F0902E16E4F0
:1028240093FF900037F022902E16E493FF9000203F
:10283400F0902E1AE493FF900031F0902E16E4935A
:06284400FF900037F022B6
:0F2E680090002074FFF0900031F0900037F022BE
:1027BD00900126EFF0300328301325902E19E49365
:1027CD00FF900014F0902E09E493FF900024F090F8
:1027DD000126E0FF902E0993FF90002AF0C21322EC
:1027ED0020031320131090001474FFF0900024F0B8
:0727FD0090002AF0D2132224
:102C3000900127EFF0902E19E493FF900014F0908C
:102C40002E09E493FF900024F0900127E0FF902EDE
:082C50000993FF90002AF02215
:102DF5009000FAEFF0A3ECF0A3EDF09000FAE0FFFD
:042E0500122C302239
:10245B00900128EFF0E0FF120D86247B0124870208
:10246B0024A70324B30524BC0624C008000024C3FE
:10247B0090001CE0FEA3E0FF12237D2290001CE0E5
:10248B00FEA3E0FF7C007D09120CFB7D05120D0DF8
:10249B00EF2420FFEE3400FE12237D2290003FE05C
:1024AB00FEA3E0FF12237D2290001FE0FF122BE022
:0924BB0022122A1C22122CFF221D
:1024C400900129EFF0E0FF120D8624E40124F002CC
:1024D400251003251C052525062529080000252C83
:1024E40090002DE0FEA3E0FF1223EC2290002DE0EB
:1024F400FEA3E0FF7C007D09120CFB7D05120D0D8F
:10250400EF2420FFEE3400FE1223EC22900047E07B
:10251400FEA3E0FF1223EC22900030E0FF122C080F
:0925240022122CE222122D1C22CD
:1029830090012AEFF0E0FF120D8629A906299D0781
:1029930029B30829AD09000029B6900006E0FEA37B
:1029A300E0FF1229B722122DCD227F631229B7220D
:0429B300122DE122DE
:1022960090012BEFF0E0FF7D017C00122DF59001FF
:1022A6002BE0FF120D8622C50022CB0122D7022287
:1022B600E30322EC0422F50522FE060000230A7F32
:1022C6000112277622900049E0FEA3E0FF1223ECDC
:1022D60022900004E0FEA3E0FF1223EC22A21BE4FE
:1022E60033FF12280422A209E433FF12277622A222
:1022F60006E433FF12277622900036E0FF3395E09E
:05230600FE1223EC2291
:102DB60090012CEFF0E0FF7D017C00122DF59001D3
:072DC6002CE0FF122296220F
:10107E0041003900410042004100170041002900A3
:10108E0041003500410014004100240041002A00B7
:10109E0041002000410031004100370041001A009C
:1010AE0041002200410010004100190042000B00D7
:1010BE0000420012000041003E0041004600420086
:1010CE002700004200330000420006000042003BB1
:1010DE000000420043000042001C000042002D00B0
:1010EE00004200040000420049000041001500418A
:1010FE000021004100360041001100410045004131
:10110E00003D0041000E004100260041001B004141
:10111E00001E0041002C0041002F0041001F004125
:10112E000030004100180041004100410003004121
:10113E00000F004100250041002B00410016004128
:10114E00002300410032004100380041003A0041C6
:10115E0000020041000A0041004B0041000900421C
:10116E0000007B5641000800C10DC115C10CC11015
:10117E00C101C109C106C117C10AC183C113C10290
:10118E00C108C116C112C111C11AC105C107C10FD3
:10119E00C118C119C114C10BC100C104C11BC10EBC
:1011AE00C11C41000D0042003F00004200470000FC
:1011BE00540060000000000000000000000000006D
:1011CE0000000000000000420074000054004C00BB
:1011DE000000000000000000000000000000000001
:0311EE00000000FE
:10264300900119E4F0A3F043D2C0E5D25450FF70D7
:10265300F9AFD3FEEF75F010A4FFAEF0E5D4540F3D
:10266300FD7C00EF2DFFEE3CFE900119F0A3EFF08F
:10267300900119E0FEA3E0FF7802CEC313CE13D876
:10268300F9FF900119EEF0A3EFF053D28F900119E7
:05269300E0FEA3E0FFE2
:01269800221F
:05173600900076EFF0C9
:10173B00A3E4F0A3F0A3F0A3F0A374FFF0A3F0A332
:10174B00E4F0A3F0A3F0A3F0900076E0FF4480F563
:10175B00D275D46075D507A3E4F0A3F0900077E0C1
:10176B00FEA3E0FFC3940AEE940040030218781224
:10177B002643AC06AD07900077E0FEA3E0FF25E023
:10178B00FFEE33FE74812FF58274003EF583ECF08F
:10179B00A3EDF0900077E0FEA3E0FF25E0FFEE3332
:1017AB00FE74812FF58274003EF583E0FEA3E0FF0B
:1017BB0090007DE0FCA3E0FDC39FEC9E50259000C4
:1017CB0077E0FEA3E0FF25E0FFEE33FE74812FF5FB
:1017DB008274003EF583E0FEA3E0FF90007DEEF007
:1017EB00A3EFF0900077E0FEA3E0FF25E0FFEE33E0
:1017FB00FE74812FF58274003EF583E0FEA3E0FFBB
:10180B0090007BE0FCA3E0FDD39FEC9E4025900075
:10181B0077E0FEA3E0FF25E0FFEE33FE74812FF5AA
:10182B008274003EF583E0FEA3E0FF90007BEEF0B8
:10183B00A3EFF0900077E0FEA3E0FF25E0FFEE338F
:10184B00FE74812FF58274003EF583E0FEA3E0FF6A
:10185B0090007AE02FF0900079E03EF0900078E075
:10186B0004F07006900077E004F002176753D28FF4
:10187B0090007BE0FEA3E0FF900079E0FCA3E0FD8D
:10188B00C39FFFEC9EFE90007DE0FCA3E0FDC3EF49
:10189B009DFFEE9CFEEF7803CEC313CE13D8F9FF5A
:1018AB0090007FEEF0A3EFF090007FE0FEA3E0FF4F
:0118BB00220A
:1011F1004100E6014200E700004100E3004200E453
:021201000000EB
:102A4B0020A10820A0057E007F012220A1057E0089
:102A5B007F022220A0057E007F032220A2057E009C
:0F2A6B007F042220A5057E007F0522E4FEFF22C6
:1018BC0090012DE4F0122A4BEFF09000E6E0FF12BD
:1018CC000D8618E40118F70219000319320419984F
:1018DC000519D906000019EC90012DE0FF700302E8
:1018EC0019F19000E67402F00219F19000E674030D
:1018FC00F00219F190012DE0FF60229000E3F090CE
:10190C00012DE0FF7E009000E7EEF0A3EFF09001D8
:10191C002D7401F09000E67404F00219F190012D81
:10192C007406F00219F190012DE0FF60579000E46D
:10193C00E475F001120D62AFF0FED3EF9432EE9429
:10194C000040169000E67405F090012D7403F090A1
:10195C0000E4E4F0A3F00219F190012DE0FF7E0009
:10196C009000E7E0FCA3E0FDEF6D7001EC600D90E2
:10197C0000E4E4F0A3F09000E67403F090012D7401
:10198C0001F080619000E67406F0805990012DE022
:10199C00FF60329000E4E475F001120D62AFF0FECE
:1019AC00D3EF940AEE940040149000E4E4F0A3F01A
:1019BC0090012D7404F09000E604F0802890012D25
:1019CC007403F080209000E67406F080189000E418
:1019DC00E4F0A3F09000E604F090012D04F08005F3
:0C19EC009000E3E4F090012DE0FF7E008D
:0119F80022CC
:1012030002243FC020202600000000000000000050
:1012130000000000000000000000000000000000CB
:0712230000000000000000C4
:102B32009000FDEBF0A3EAF0A3E9F075865A90004D
:102B4200FDE0FBA3E0FAA3E0F9FFF59775963F7568
:0D2B520095C0C2AF43950A75945AD2AF22C8
:10294E0090012EE4F0F090012EE0FFC3942050246D
:10295E0078240806E618860670010614FFF5828EA6
:10296E0083E493FF90012EE0FE74262EF8A607E076
:04297E0004F080D20F
:012982002232
:102D540090012FE4F090012FE0FFC394115009007B
:082D6400000000E004F080ED26
:012D6C002244
:082B5F00900100EEF0A3EFF07D
:102B6700A3E4F0900102E0FF7E00900100E0FCA3E7
:102B7700E0FDC3EF9DEE9C500B122D54900102E037
:042B870004F080DFF7
:012B8B002227
:102E5600758C00758A00438901D28CC28DD2A9D2A5
:022E6600AF2299
:03000B000213DFFE
:1013DF00C0E0C0F0C083C082C085C084C092539269
:1013EF00FEC0D075D000C000C001C002C003C00451
:1013FF00C005C006C007D292D291D290D295D29496
:10140F00D293D296D29790000AE0FF120D8614392C
:10141F0001144702145503146304147105147F0655
:10142F00148D07149B08000014AE900020E0FF7E7F
:10143F0000122E1DC292806C900031E0FF7E0012D0
:10144F002E1DC291805E900037E0FF7E00122E1D90
:10145F00C2908050900014E0FF7E00122E1DC295A6
:10146F008042900024E0FF7E00122E1DC294803433
:10147F0090002AE0FF7E00122E1DC293802690005E
:10148F001AE0FF7E00122E1DC2968018900022E0F7
:10149F00FF7E00122E1DC29790000AE4F080059087
:1014AF00000AE4F090000AE004F0300B3690004B95
:1014BF00E0FF602A900000E0FEA3E0FF4E600DE029
:1014CF0024FFF0900000E034FFF0801790000074CC
:1014DF007BF0A37456F090004BE014F08005900061
:1014EF004BE4F0900009E0FF7053900026E0FF609E
:1014FF000214F0900029E0FF600214F0900035E034
:10150F00FF600214F0900002E0FF600214F0900000
:10151F000DE0FF600214F0900011E0FF600214F084
:10152F00900045E0FF600414F0800AB217B20390F8
:10153F000045740AF0900009741AF08006900009B3
:10154F00E014F090003DE0FF600214F090003AE0EC
:10155F00FF600214F0C28D758CEC758A78D2AFD211
:10156F00A9D28CD007D006D005D004D003D002D09A
:10157F0001D000D0D0D092D084D085D082D083D06B
:04158F00F0D0E03286
:03001B00022E862C
:092E8600C28F758DD8758BF032F6
:1025940075F10075F9FF75F20075FAFF75F3FF75B3
:1025A400FB0043F62053FEDF43F40853FCF743F6E5
:1025B4000853FEF753F6FB43FE0443F60253FEFDB5
:1025C40053F6FE43FE0153F5BF43FD4043F58053EC
:1025D400FD7F43F51853FDE743D60653F5F953FD44
:0825E400F953F6EF43FE10224B
:102D6D0043AB8075AD1375AC8875BC0075BB007534
:092D7D00BD0085BCAF85BBAE2290
:102D860043A18075A31375A28875A70075A6007563
:092D9600BE0085A7A585A6A422B4
:102CA20043B12053B1F743B10275B30075B2FF755A
:102CB200B70075B68085B7B585B6B475CF0043E465
:022CC20080226E
:102C580090011BEEF0A3EFF090011BE0FEA3E0FF54
:102C6800F5BB85BBAE90011BE0FEA3E0FFEEFF7E47
:072C780000F5BC85BCAF2292
:102AD60090011DEEF0A3EFF090011DE0FEA3E0FFD4
:102AE600F5A690011DE0FEA3E0FFF5A490011DE010
:0E2AF600FEA3E0FFEEFF7E00F5A785A7A52258
:102B040090011FEEF0A3EFF090011FE0FEA3E0FFA1
:102B1400F5B690011FE0FEA3E0FFF5B490011FE0BD
:0E2B2400FEA3E0FFEEFF7E00F5B785B7B522F9
:0C000E0053D17753E4DF53ABF9C2EE226C
:0F2E7700539AFD53BFFE53E4BF53A1F9C2F82293
:0700030012000E122E7722FD
:102E300053ABF053ABF743AB0243E42053D1F7431A
:032E4000D180221C
:102E430053A1F053A1F743A10243E440439A025331
:032E5300BFFE229D
:07007C00122E30122E432268
:0300830002284A06
:10284A00C0E0C083C082C085C084C0925392FEC0DB
:10285A00D075D000C006C007900019E0FF600214CE
:10286A00F0900012E0FEA3E0FF122C5853D1F7D0EB
:10287A0007D006D0D0D092D084D085D082D083D051
:02288A00E0323A
:03008B0002288CBC
:10288C00C0E0C083C082C085C084C0925392FEC099
:10289C00D075D000C006C007900010E0FF60021495
:1028AC00F090000BE0FEA3E0FF122AD653BFFED03F
:1028BC0007D006D0D0D092D084D085D082D083D00F
:0228CC00E032F8
:101C9E0030EB0930EC069000C6E4F02230EC047F05
:101CAE000280027F0030EB047E0180027E00EE2F68
:101CBE00FF900130F09000C6E0FF7010900130E010
:101CCE00FF9000CCF09000C67401F0229000C6E0A8
:101CDE00FFB4011A9000CCE0FF900130E0FE6F607F
:101CEE0068E0FF9000CAF09000C67402F0229000E7
:101CFE00C6E0FF640270529000CAE0FF900130E02F
:101D0E00FE6F6045E0FF9000C9F09000CCE0FFB49C
:101D1E0001159000CAE0FF700E9000C9E0FFB402FA
:101D2E00069000CD7401F09000CCE0FFB402159047
:101D3E0000CAE0FF700E9000C9E0FFB401069000EB
:091D4E00CD7402F09000C6E4F02F
:011D57002269
:102C7F00121C9E9000CDE0FFB40106E4F0FE7F5AD7
:102C8F00229000CDE0FFB40206E4F0FE7F5922E46B
:032C9F00FEFF2213
:100A3E00020CE6E86480F8E933E83360110460F0F4
:100A4E00ED33EC337009E8FCE9FDEAFEEBFF22041E
:100A5E0060DED3EB9FEA9EE99DE8C2E78CF0C2F719
:100A6E0095F0400CE8CCF8E9CDF9EACEFAEBCFFBE5
:100A7E00120CB185D0F05804700320D5B3E8047081
:100A8E00075002B2D5020CF092D5EC0460F7E4CC1C
:100A9E00C0E0C398F8603B94186008400DD0E0FBAE
:100AAE00020CC8E4FBFAC9FC8028E830E406E4C96D
:100ABE00FBE4CAFCE830E305E4C9CACBFCE8540702
:100ACE006010F8C3E913F9EA13FAEB13FBEC13FC0D
:100ADE00D8F130F52FC3E49CFCEF9BFFEE9AFEEDB0
:100AEE0099FDD0E0FBEF4E4D4C701222DB03020C51
:100AFE00EDEC2CFCEF33FFEE33FEED33FDED30E786
:100B0E00EB020CC8EF2BFFEE3AFEED39FDD0E0FB09
:100B1E0050130BBB0003020CF0ED13FDEE13FEEFB2
:080B2E0013FFEC13FC020CC8DC
:100B3600EC4D6011E8497017ED33EC3304600DE4B9
:100B4600FCFFFEFD22E933E8330470F8020CE612DE
:100B56000CB158046009E4CC2481500628500902DF
:100B66000CF0284003020CEDC0E0EB4A7044B9805B
:100B760006D0E0FB020CDCEF4E701CBD8008EBFFDC
:100B8600EAFEE9FD80EBE98DF0A4FEE5F0020C1F1C
:100B9600E9CDF9EAFEEBFFEF89F0A4FCE5F0CE899A
:100BA600F0A42EFFE435F0CD89F0A42DFEE435F057
:100BB6008067EF4E7005BD80D780C3EF8BF0A4AC85
:100BC600F0EE8BF0A42CFCE435F0F8EF8AF0A42CC0
:100BD600E5F038FCE433CB8DF0A42CFCE5F03BF8D3
:100BE600EE8AF0A42CFCE5F038F8E433CF89F0A4C3
:100BF6002CFCE5F038CF3400CE89F0A42FFFE5F0C9
:100C06003EFEE433C98DF0A42EFEE5F039CD8AF020
:100C1600A42FFFE5F03EFEE43DFD33D0E0FB500798
:100C26000BBB000F020CF0EC2CFCEF33FFEE33FE97
:060C3600ED33FD020CC8C5
:100C3C0075F020800E75F010800575F0087D007E33
:100C4C00007F003392D530D503120D78EC33401071
:100C5C00EF33FFEE33FEED33FDEC33FCD5F0ED223C
:0E0C6C00E5F0247EA2D513CC92E7CDCEFF2278
:100C7A00EDD2E7CD33EC3392D524814006E4FFFE72
:100C8A00FDFC22FCE4CFCECDCC24E0501174FF80D1
:100C9A00EDC3CC13CCCD13CDCE13CECF13CF04706E
:070CAA00F030D5DE020D78E9
:100CB100E9D2E7C933E833F892D5EDD2E7CD33EC89
:070CC10033FC5002B2D52202
:100CC800EC30E7100FBF000C0EBE00080DBD00048D
:100CD8000BEB6014A2D5EB13FCED92E7FD2274FF39
:100CE800FCFDFEFF22E480F8A2D574FF13FC7D8092
:030CF800E480EFA6
:10212A00021B03E493A3F8E493A34003F68001F2AD
:10213A0008DFF48029E493A3F85407240CC8C333B6
:10214A00C4540F4420C8834004F456800146F6DF85
:10215A00E4800B0102040810204080901060E47EA5
:10216A00019360BCA3FF543F30E509541FFEE4937A
:10217A00A360010ECF54C025E060A840B8E493A341
:10218A00FAE493A3F8E493A3C8C582C8CAC583CA6C
:10219A00F0A3C8C582C8CAC583CADFE9DEE780BE24
:01122A0000C3
:100CFB00EF8DF0A4A8F0CF8CF0A428CE8DF0A42E0D
:020D0B00FE22C6
:100D0D00BC000BBE0029EF8DF084FFADF022E4CCCA
:100D1D00F875F008EF2FFFEE33FEEC33FCEE9DEC93
:100D2D00984005FCEE9DFE0FD5F0E9E4CEFD22EDD9
:100D3D00F8F5F0EE8420D21CFEADF075F008EF2F23
:100D4D00FFED33FD4007985006D5F0F222C398FD14
:050D5D000FD5F0EA22B1
:100D6200A3F8E0C5F025F0F0E58215827002158344
:060D7200E0C838F0E822A1
:0E0D7800C3E49FFFE49EFEE49DFDE49CFC228C
:100D8600D083D082F8E4937012740193700DA3A3FC
:100D960093F8740193F5828883E473740293686010
:060DA600EFA3A3A380DF10
:00000001FF
